{
  "_format": "hh-sol-artifact-1",
  "contractName": "TokenVesting",
  "sourceName": "contracts/TokenVesting.sol",
  "abi": [
    {
      "inputs": [
        {
          "internalType": "address",
          "name": "token_",
          "type": "address"
        }
      ],
      "stateMutability": "nonpayable",
      "type": "constructor"
    },
    {
      "anonymous": false,
      "inputs": [
        {
          "indexed": true,
          "internalType": "address",
          "name": "previousOwner",
          "type": "address"
        },
        {
          "indexed": true,
          "internalType": "address",
          "name": "newOwner",
          "type": "address"
        }
      ],
      "name": "OwnershipTransferred",
      "type": "event"
    },
    {
      "anonymous": false,
      "inputs": [
        {
          "indexed": false,
          "internalType": "uint256",
          "name": "amount",
          "type": "uint256"
        }
      ],
      "name": "Released",
      "type": "event"
    },
    {
      "anonymous": false,
      "inputs": [],
      "name": "Revoked",
      "type": "event"
    },
    {
      "inputs": [
        {
          "internalType": "address",
          "name": "holder",
          "type": "address"
        }
      ],
      "name": "computeNextVestingScheduleIdForHolder",
      "outputs": [
        {
          "internalType": "bytes32",
          "name": "",
          "type": "bytes32"
        }
      ],
      "stateMutability": "view",
      "type": "function"
    },
    {
      "inputs": [
        {
          "internalType": "bytes32",
          "name": "vestingScheduleId",
          "type": "bytes32"
        }
      ],
      "name": "computeReleasableAmount",
      "outputs": [
        {
          "internalType": "uint256",
          "name": "",
          "type": "uint256"
        }
      ],
      "stateMutability": "view",
      "type": "function"
    },
    {
      "inputs": [
        {
          "internalType": "address",
          "name": "holder",
          "type": "address"
        },
        {
          "internalType": "uint256",
          "name": "index",
          "type": "uint256"
        }
      ],
      "name": "computeVestingScheduleIdForAddressAndIndex",
      "outputs": [
        {
          "internalType": "bytes32",
          "name": "",
          "type": "bytes32"
        }
      ],
      "stateMutability": "pure",
      "type": "function"
    },
    {
      "inputs": [
        {
          "internalType": "address",
          "name": "_beneficiary",
          "type": "address"
        },
        {
          "internalType": "uint256",
          "name": "_start",
          "type": "uint256"
        },
        {
          "internalType": "uint256",
          "name": "_cliff",
          "type": "uint256"
        },
        {
          "internalType": "uint256",
          "name": "_duration",
          "type": "uint256"
        },
        {
          "internalType": "uint256",
          "name": "_slicePeriodSeconds",
          "type": "uint256"
        },
        {
          "internalType": "bool",
          "name": "_revocable",
          "type": "bool"
        },
        {
          "internalType": "uint256",
          "name": "_amount",
          "type": "uint256"
        }
      ],
      "name": "createVestingSchedule",
      "outputs": [],
      "stateMutability": "nonpayable",
      "type": "function"
    },
    {
      "inputs": [
        {
          "internalType": "address",
          "name": "holder",
          "type": "address"
        }
      ],
      "name": "getLastVestingScheduleForHolder",
      "outputs": [
        {
          "components": [
            {
              "internalType": "bool",
              "name": "initialized",
              "type": "bool"
            },
            {
              "internalType": "address",
              "name": "beneficiary",
              "type": "address"
            },
            {
              "internalType": "uint256",
              "name": "cliff",
              "type": "uint256"
            },
            {
              "internalType": "uint256",
              "name": "start",
              "type": "uint256"
            },
            {
              "internalType": "uint256",
              "name": "duration",
              "type": "uint256"
            },
            {
              "internalType": "uint256",
              "name": "slicePeriodSeconds",
              "type": "uint256"
            },
            {
              "internalType": "bool",
              "name": "revocable",
              "type": "bool"
            },
            {
              "internalType": "uint256",
              "name": "amountTotal",
              "type": "uint256"
            },
            {
              "internalType": "uint256",
              "name": "released",
              "type": "uint256"
            },
            {
              "internalType": "bool",
              "name": "revoked",
              "type": "bool"
            }
          ],
          "internalType": "struct TokenVesting.VestingSchedule",
          "name": "",
          "type": "tuple"
        }
      ],
      "stateMutability": "view",
      "type": "function"
    },
    {
      "inputs": [],
      "name": "getToken",
      "outputs": [
        {
          "internalType": "address",
          "name": "",
          "type": "address"
        }
      ],
      "stateMutability": "view",
      "type": "function"
    },
    {
      "inputs": [
        {
          "internalType": "uint256",
          "name": "index",
          "type": "uint256"
        }
      ],
      "name": "getVestingIdAtIndex",
      "outputs": [
        {
          "internalType": "bytes32",
          "name": "",
          "type": "bytes32"
        }
      ],
      "stateMutability": "view",
      "type": "function"
    },
    {
      "inputs": [
        {
          "internalType": "bytes32",
          "name": "vestingScheduleId",
          "type": "bytes32"
        }
      ],
      "name": "getVestingSchedule",
      "outputs": [
        {
          "components": [
            {
              "internalType": "bool",
              "name": "initialized",
              "type": "bool"
            },
            {
              "internalType": "address",
              "name": "beneficiary",
              "type": "address"
            },
            {
              "internalType": "uint256",
              "name": "cliff",
              "type": "uint256"
            },
            {
              "internalType": "uint256",
              "name": "start",
              "type": "uint256"
            },
            {
              "internalType": "uint256",
              "name": "duration",
              "type": "uint256"
            },
            {
              "internalType": "uint256",
              "name": "slicePeriodSeconds",
              "type": "uint256"
            },
            {
              "internalType": "bool",
              "name": "revocable",
              "type": "bool"
            },
            {
              "internalType": "uint256",
              "name": "amountTotal",
              "type": "uint256"
            },
            {
              "internalType": "uint256",
              "name": "released",
              "type": "uint256"
            },
            {
              "internalType": "bool",
              "name": "revoked",
              "type": "bool"
            }
          ],
          "internalType": "struct TokenVesting.VestingSchedule",
          "name": "",
          "type": "tuple"
        }
      ],
      "stateMutability": "view",
      "type": "function"
    },
    {
      "inputs": [
        {
          "internalType": "address",
          "name": "holder",
          "type": "address"
        },
        {
          "internalType": "uint256",
          "name": "index",
          "type": "uint256"
        }
      ],
      "name": "getVestingScheduleByAddressAndIndex",
      "outputs": [
        {
          "components": [
            {
              "internalType": "bool",
              "name": "initialized",
              "type": "bool"
            },
            {
              "internalType": "address",
              "name": "beneficiary",
              "type": "address"
            },
            {
              "internalType": "uint256",
              "name": "cliff",
              "type": "uint256"
            },
            {
              "internalType": "uint256",
              "name": "start",
              "type": "uint256"
            },
            {
              "internalType": "uint256",
              "name": "duration",
              "type": "uint256"
            },
            {
              "internalType": "uint256",
              "name": "slicePeriodSeconds",
              "type": "uint256"
            },
            {
              "internalType": "bool",
              "name": "revocable",
              "type": "bool"
            },
            {
              "internalType": "uint256",
              "name": "amountTotal",
              "type": "uint256"
            },
            {
              "internalType": "uint256",
              "name": "released",
              "type": "uint256"
            },
            {
              "internalType": "bool",
              "name": "revoked",
              "type": "bool"
            }
          ],
          "internalType": "struct TokenVesting.VestingSchedule",
          "name": "",
          "type": "tuple"
        }
      ],
      "stateMutability": "view",
      "type": "function"
    },
    {
      "inputs": [],
      "name": "getVestingSchedulesCount",
      "outputs": [
        {
          "internalType": "uint256",
          "name": "",
          "type": "uint256"
        }
      ],
      "stateMutability": "view",
      "type": "function"
    },
    {
      "inputs": [
        {
          "internalType": "address",
          "name": "_beneficiary",
          "type": "address"
        }
      ],
      "name": "getVestingSchedulesCountByBeneficiary",
      "outputs": [
        {
          "internalType": "uint256",
          "name": "",
          "type": "uint256"
        }
      ],
      "stateMutability": "view",
      "type": "function"
    },
    {
      "inputs": [],
      "name": "getVestingSchedulesTotalAmount",
      "outputs": [
        {
          "internalType": "uint256",
          "name": "",
          "type": "uint256"
        }
      ],
      "stateMutability": "view",
      "type": "function"
    },
    {
      "inputs": [],
      "name": "getWithdrawableAmount",
      "outputs": [
        {
          "internalType": "uint256",
          "name": "",
          "type": "uint256"
        }
      ],
      "stateMutability": "view",
      "type": "function"
    },
    {
      "inputs": [],
      "name": "owner",
      "outputs": [
        {
          "internalType": "address",
          "name": "",
          "type": "address"
        }
      ],
      "stateMutability": "view",
      "type": "function"
    },
    {
      "inputs": [
        {
          "internalType": "bytes32",
          "name": "vestingScheduleId",
          "type": "bytes32"
        },
        {
          "internalType": "uint256",
          "name": "amount",
          "type": "uint256"
        }
      ],
      "name": "release",
      "outputs": [
        {
          "internalType": "bool",
          "name": "",
          "type": "bool"
        }
      ],
      "stateMutability": "nonpayable",
      "type": "function"
    },
    {
      "inputs": [],
      "name": "renounceOwnership",
      "outputs": [],
      "stateMutability": "nonpayable",
      "type": "function"
    },
    {
      "inputs": [
        {
          "internalType": "bytes32",
          "name": "vestingScheduleId",
          "type": "bytes32"
        }
      ],
      "name": "revoke",
      "outputs": [],
      "stateMutability": "nonpayable",
      "type": "function"
    },
    {
      "inputs": [
        {
          "internalType": "address",
          "name": "newOwner",
          "type": "address"
        }
      ],
      "name": "transferOwnership",
      "outputs": [],
      "stateMutability": "nonpayable",
      "type": "function"
    },
    {
      "inputs": [
        {
          "internalType": "uint256",
          "name": "amount",
          "type": "uint256"
        }
      ],
      "name": "withdraw",
      "outputs": [],
      "stateMutability": "nonpayable",
      "type": "function"
    }
  ],
  "bytecode": "0x60a06040523480156200001157600080fd5b506040516200325838038062003258833981810160405281019062000037919062000241565b620000576200004b6200010b60201b60201c565b6200011360201b60201c565b60018081905550600073ffffffffffffffffffffffffffffffffffffffff168173ffffffffffffffffffffffffffffffffffffffff1603620000d0576040517f08c379a0000000000000000000000000000000000000000000000000000000008152600401620000c790620002d4565b60405180910390fd5b8073ffffffffffffffffffffffffffffffffffffffff1660808173ffffffffffffffffffffffffffffffffffffffff168152505050620002f6565b600033905090565b60008060009054906101000a900473ffffffffffffffffffffffffffffffffffffffff169050816000806101000a81548173ffffffffffffffffffffffffffffffffffffffff021916908373ffffffffffffffffffffffffffffffffffffffff1602179055508173ffffffffffffffffffffffffffffffffffffffff168173ffffffffffffffffffffffffffffffffffffffff167f8be0079c531659141344cd1fd0a4f28419497f9722a3daafe3b4186f6b6457e060405160405180910390a35050565b600080fd5b600073ffffffffffffffffffffffffffffffffffffffff82169050919050565b60006200020982620001dc565b9050919050565b6200021b81620001fc565b81146200022757600080fd5b50565b6000815190506200023b8162000210565b92915050565b6000602082840312156200025a5762000259620001d7565b5b60006200026a848285016200022a565b91505092915050565b600082825260208201905092915050565b7f7a65726f2061646472657373206e6f7420616c6c6f7765642100000000000000600082015250565b6000620002bc60198362000273565b9150620002c98262000284565b602082019050919050565b60006020820190508181036000830152620002ef81620002ad565b9050919050565b608051612f31620003276000396000818161085a0152818161099201528181610de3015261101d0152612f316000f3fe608060405234801561001057600080fd5b50600436106101215760003560e01c80638af104da116100ad578063ea1bb3d511610071578063ea1bb3d51461030a578063f2fde38b1461033a578063f51321d714610356578063f7c469f014610386578063f9079b37146103b657610121565b80638af104da146102525780638da5cb5b1461028257806390be10cc146102a05780639ef346b4146102be578063b75c7dc6146102ee57610121565b806348deb471116100f457806348deb4711461019a5780635a7bb69a146101b857806366afd8ef146101e8578063715018a6146102185780637e913dc61461022257610121565b8063130836171461012657806317e289e91461014457806321df0da7146101605780632e1a7d4d1461017e575b600080fd5b61012e6103e6565b60405161013b9190611e5e565b60405180910390f35b61015e60048036038101906101599190611f40565b6103f3565b005b610168610856565b6040516101759190611ff1565b60405180910390f35b6101986004803603810190610193919061200c565b61087e565b005b6101a26109e0565b6040516101af9190611e5e565b60405180910390f35b6101d260048036038101906101cd9190612039565b6109ea565b6040516101df9190611e5e565b60405180910390f35b61020260048036038101906101fd919061209c565b610a33565b60405161020f91906120eb565b60405180910390f35b610220610e3e565b005b61023c60048036038101906102379190612039565b610e52565b60405161024991906121ff565b60405180910390f35b61026c6004803603810190610267919061221b565b610fb7565b604051610279919061226a565b60405180910390f35b61028a610fea565b6040516102979190611ff1565b60405180910390f35b6102a8611013565b6040516102b59190611e5e565b60405180910390f35b6102d860048036038101906102d39190612285565b6110c8565b6040516102e591906121ff565b60405180910390f35b61030860048036038101906103039190612285565b6111d9565b005b610324600480360381019061031f9190612285565b6114be565b6040516103319190611e5e565b60405180910390f35b610354600480360381019061034f9190612039565b6116a0565b005b610370600480360381019061036b919061221b565b611723565b60405161037d91906121ff565b60405180910390f35b6103a0600480360381019061039b9190612039565b611745565b6040516103ad919061226a565b60405180910390f35b6103d060048036038101906103cb919061200c565b611797565b6040516103dd919061226a565b60405180910390f35b6000600280549050905090565b6103fb611808565b803073ffffffffffffffffffffffffffffffffffffffff166390be10cc6040518163ffffffff1660e01b8152600401602060405180830381865afa158015610447573d6000803e3d6000fd5b505050506040513d601f19601f8201168201806040525081019061046b91906122c7565b10156104ac576040517f08c379a00000000000000000000000000000000000000000000000000000000081526004016104a390612351565b60405180910390fd5b600084116104ef576040517f08c379a00000000000000000000000000000000000000000000000000000000081526004016104e6906123bd565b60405180910390fd5b60008111610532576040517f08c379a000000000000000000000000000000000000000000000000000000000815260040161052990612429565b60405180910390fd5b6001831015610576576040517f08c379a000000000000000000000000000000000000000000000000000000000815260040161056d90612495565b60405180910390fd5b60003073ffffffffffffffffffffffffffffffffffffffff1663f7c469f0896040518263ffffffff1660e01b81526004016105b19190611ff1565b602060405180830381865afa1580156105ce573d6000803e3d6000fd5b505050506040513d601f19601f820116820180604052508101906105f291906124ca565b90506000610609878961188690919063ffffffff16565b90506040518061014001604052806001151581526020018a73ffffffffffffffffffffffffffffffffffffffff168152602001828152602001898152602001878152602001868152602001851515815260200184815260200160008152602001600015158152506003600084815260200190815260200160002060008201518160000160006101000a81548160ff02191690831515021790555060208201518160000160016101000a81548173ffffffffffffffffffffffffffffffffffffffff021916908373ffffffffffffffffffffffffffffffffffffffff16021790555060408201518160010155606082015181600201556080820151816003015560a0820151816004015560c08201518160050160006101000a81548160ff02191690831515021790555060e0820151816006015561010082015181600701556101208201518160080160006101000a81548160ff0219169083151502179055509050506107808360045461188690919063ffffffff16565b60048190555060028290806001815401808255809150506001900390600052602060002001600090919091909150556000600560008b73ffffffffffffffffffffffffffffffffffffffff1673ffffffffffffffffffffffffffffffffffffffff16815260200190815260200160002054905061080760018261188690919063ffffffff16565b600560008c73ffffffffffffffffffffffffffffffffffffffff1673ffffffffffffffffffffffffffffffffffffffff1681526020019081526020016000208190555050505050505050505050565b60007f0000000000000000000000000000000000000000000000000000000000000000905090565b6002600154036108c3576040517f08c379a00000000000000000000000000000000000000000000000000000000081526004016108ba90612543565b60405180910390fd5b60026001819055506108d3611808565b803073ffffffffffffffffffffffffffffffffffffffff166390be10cc6040518163ffffffff1660e01b8152600401602060405180830381865afa15801561091f573d6000803e3d6000fd5b505050506040513d601f19601f8201168201806040525081019061094391906122c7565b1015610984576040517f08c379a000000000000000000000000000000000000000000000000000000000815260040161097b906125af565b60405180910390fd5b6109d661098f610fea565b827f000000000000000000000000000000000000000000000000000000000000000073ffffffffffffffffffffffffffffffffffffffff1661189c9092919063ffffffff16565b6001808190555050565b6000600454905090565b6000600560008373ffffffffffffffffffffffffffffffffffffffff1673ffffffffffffffffffffffffffffffffffffffff168152602001908152602001600020549050919050565b6000600260015403610a7a576040517f08c379a0000000000000000000000000000000000000000000000000000000008152600401610a7190612543565b60405180910390fd5b6002600181905550826003600082815260200190815260200160002060000160009054906101000a900460ff16610ae6576040517f08c379a0000000000000000000000000000000000000000000000000000000008152600401610add9061261b565b60405180910390fd5b6003600082815260200190815260200160002060080160009054906101000a900460ff1615610b4a576040517f08c379a0000000000000000000000000000000000000000000000000000000008152600401610b4190612687565b60405180910390fd5b600060036000868152602001908152602001600020905060008160000160019054906101000a900473ffffffffffffffffffffffffffffffffffffffff1673ffffffffffffffffffffffffffffffffffffffff163373ffffffffffffffffffffffffffffffffffffffff161490506000610bc2610fea565b73ffffffffffffffffffffffffffffffffffffffff163373ffffffffffffffffffffffffffffffffffffffff161490508180610bfb5750805b610c3a576040517f08c379a0000000000000000000000000000000000000000000000000000000008152600401610c31906126f3565b60405180910390fd5b6000610d3484604051806101400160405290816000820160009054906101000a900460ff161515151581526020016000820160019054906101000a900473ffffffffffffffffffffffffffffffffffffffff1673ffffffffffffffffffffffffffffffffffffffff1673ffffffffffffffffffffffffffffffffffffffff168152602001600182015481526020016002820154815260200160038201548152602001600482015481526020016005820160009054906101000a900460ff1615151515815260200160068201548152602001600782015481526020016008820160009054906101000a900460ff161515151581525050611922565b905086811015610d79576040517f08c379a0000000000000000000000000000000000000000000000000000000008152600401610d709061275f565b60405180910390fd5b610d9087856007015461188690919063ffffffff16565b846007018190555060008460000160019054906101000a900473ffffffffffffffffffffffffffffffffffffffff169050610dd688600454611a4390919063ffffffff16565b600481905550610e2781897f000000000000000000000000000000000000000000000000000000000000000073ffffffffffffffffffffffffffffffffffffffff1661189c9092919063ffffffff16565b600196505050505050506001808190555092915050565b610e46611808565b610e506000611a59565b565b610e5a611dd6565b60036000610eb3846001600560008873ffffffffffffffffffffffffffffffffffffffff1673ffffffffffffffffffffffffffffffffffffffff16815260200190815260200160002054610eae91906127ae565b610fb7565b8152602001908152602001600020604051806101400160405290816000820160009054906101000a900460ff161515151581526020016000820160019054906101000a900473ffffffffffffffffffffffffffffffffffffffff1673ffffffffffffffffffffffffffffffffffffffff1673ffffffffffffffffffffffffffffffffffffffff168152602001600182015481526020016002820154815260200160038201548152602001600482015481526020016005820160009054906101000a900460ff1615151515815260200160068201548152602001600782015481526020016008820160009054906101000a900460ff1615151515815250509050919050565b60008282604051602001610fcc92919061284b565b60405160208183030381529060405280519060200120905092915050565b60008060009054906101000a900473ffffffffffffffffffffffffffffffffffffffff16905090565b60006110c36004547f000000000000000000000000000000000000000000000000000000000000000073ffffffffffffffffffffffffffffffffffffffff166370a08231306040518263ffffffff1660e01b81526004016110749190611ff1565b602060405180830381865afa158015611091573d6000803e3d6000fd5b505050506040513d601f19601f820116820180604052508101906110b591906122c7565b611a4390919063ffffffff16565b905090565b6110d0611dd6565b60036000838152602001908152602001600020604051806101400160405290816000820160009054906101000a900460ff161515151581526020016000820160019054906101000a900473ffffffffffffffffffffffffffffffffffffffff1673ffffffffffffffffffffffffffffffffffffffff1673ffffffffffffffffffffffffffffffffffffffff168152602001600182015481526020016002820154815260200160038201548152602001600482015481526020016005820160009054906101000a900460ff1615151515815260200160068201548152602001600782015481526020016008820160009054906101000a900460ff1615151515815250509050919050565b6111e1611808565b806003600082815260200190815260200160002060000160009054906101000a900460ff16611245576040517f08c379a000000000000000000000000000000000000000000000000000000000815260040161123c9061261b565b60405180910390fd5b6003600082815260200190815260200160002060080160009054906101000a900460ff16156112a9576040517f08c379a00000000000000000000000000000000000000000000000000000000081526004016112a090612687565b60405180910390fd5b60006003600084815260200190815260200160002090508060050160009054906101000a900460ff16611311576040517f08c379a0000000000000000000000000000000000000000000000000000000008152600401611308906128c3565b60405180910390fd5b600061140b82604051806101400160405290816000820160009054906101000a900460ff161515151581526020016000820160019054906101000a900473ffffffffffffffffffffffffffffffffffffffff1673ffffffffffffffffffffffffffffffffffffffff1673ffffffffffffffffffffffffffffffffffffffff168152602001600182015481526020016002820154815260200160038201548152602001600482015481526020016005820160009054906101000a900460ff1615151515815260200160068201548152602001600782015481526020016008820160009054906101000a900460ff161515151581525050611922565b90506000811115611460576114208482610a33565b61145f576040517f08c379a00000000000000000000000000000000000000000000000000000000081526004016114569061292f565b60405180910390fd5b5b600061147d83600701548460060154611a4390919063ffffffff16565b905061149481600454611a4390919063ffffffff16565b60048190555060018360080160006101000a81548160ff0219169083151502179055505050505050565b6000816003600082815260200190815260200160002060000160009054906101000a900460ff16611524576040517f08c379a000000000000000000000000000000000000000000000000000000000815260040161151b9061261b565b60405180910390fd5b6003600082815260200190815260200160002060080160009054906101000a900460ff1615611588576040517f08c379a000000000000000000000000000000000000000000000000000000000815260040161157f90612687565b60405180910390fd5b600060036000858152602001908152602001600020905061169781604051806101400160405290816000820160009054906101000a900460ff161515151581526020016000820160019054906101000a900473ffffffffffffffffffffffffffffffffffffffff1673ffffffffffffffffffffffffffffffffffffffff1673ffffffffffffffffffffffffffffffffffffffff168152602001600182015481526020016002820154815260200160038201548152602001600482015481526020016005820160009054906101000a900460ff1615151515815260200160068201548152602001600782015481526020016008820160009054906101000a900460ff161515151581525050611922565b92505050919050565b6116a8611808565b600073ffffffffffffffffffffffffffffffffffffffff168173ffffffffffffffffffffffffffffffffffffffff1603611717576040517f08c379a000000000000000000000000000000000000000000000000000000000815260040161170e906129c1565b60405180910390fd5b61172081611a59565b50565b61172b611dd6565b61173d6117388484610fb7565b6110c8565b905092915050565b600061179082600560008573ffffffffffffffffffffffffffffffffffffffff1673ffffffffffffffffffffffffffffffffffffffff16815260200190815260200160002054610fb7565b9050919050565b60006117a16103e6565b82106117e2576040517f08c379a00000000000000000000000000000000000000000000000000000000081526004016117d990612a2d565b60405180910390fd5b600282815481106117f6576117f5612a4d565b5b90600052602060002001549050919050565b611810611b1d565b73ffffffffffffffffffffffffffffffffffffffff1661182e610fea565b73ffffffffffffffffffffffffffffffffffffffff1614611884576040517f08c379a000000000000000000000000000000000000000000000000000000000815260040161187b90612ac8565b60405180910390fd5b565b600081836118949190612ae8565b905092915050565b61191d8363a9059cbb60e01b84846040516024016118bb929190612b3e565b604051602081830303815290604052907bffffffffffffffffffffffffffffffffffffffffffffffffffffffff19166020820180517bffffffffffffffffffffffffffffffffffffffffffffffffffffffff8381831617835250505050611b25565b505050565b60008061192d611bec565b9050826040015181108061194357508261012001515b15611952576000915050611a3e565b61196d8360800151846060015161188690919063ffffffff16565b81106119975761198f8361010001518460e00151611a4390919063ffffffff16565b915050611a3e565b60006119b0846060015183611a4390919063ffffffff16565b905060008460a00151905060006119d08284611bf490919063ffffffff16565b905060006119e78383611c0a90919063ffffffff16565b90506000611a188860800151611a0a848b60e00151611c0a90919063ffffffff16565b611bf490919063ffffffff16565b9050611a3288610100015182611a4390919063ffffffff16565b90508096505050505050505b919050565b60008183611a5191906127ae565b905092915050565b60008060009054906101000a900473ffffffffffffffffffffffffffffffffffffffff169050816000806101000a81548173ffffffffffffffffffffffffffffffffffffffff021916908373ffffffffffffffffffffffffffffffffffffffff1602179055508173ffffffffffffffffffffffffffffffffffffffff168173ffffffffffffffffffffffffffffffffffffffff167f8be0079c531659141344cd1fd0a4f28419497f9722a3daafe3b4186f6b6457e060405160405180910390a35050565b600033905090565b6000611b87826040518060400160405280602081526020017f5361666545524332303a206c6f772d6c6576656c2063616c6c206661696c65648152508573ffffffffffffffffffffffffffffffffffffffff16611c209092919063ffffffff16565b9050600081511115611be75780806020019051810190611ba79190612b7c565b611be6576040517f08c379a0000000000000000000000000000000000000000000000000000000008152600401611bdd90612c1b565b60405180910390fd5b5b505050565b600042905090565b60008183611c029190612c6a565b905092915050565b60008183611c189190612c9b565b905092915050565b6060611c2f8484600085611c38565b90509392505050565b606082471015611c7d576040517f08c379a0000000000000000000000000000000000000000000000000000000008152600401611c7490612d67565b60405180910390fd5b611c8685611d4c565b611cc5576040517f08c379a0000000000000000000000000000000000000000000000000000000008152600401611cbc90612dd3565b60405180910390fd5b6000808673ffffffffffffffffffffffffffffffffffffffff168587604051611cee9190612e6d565b60006040518083038185875af1925050503d8060008114611d2b576040519150601f19603f3d011682016040523d82523d6000602084013e611d30565b606091505b5091509150611d40828286611d6f565b92505050949350505050565b6000808273ffffffffffffffffffffffffffffffffffffffff163b119050919050565b60608315611d7f57829050611dcf565b600083511115611d925782518084602001fd5b816040517f08c379a0000000000000000000000000000000000000000000000000000000008152600401611dc69190612ed9565b60405180910390fd5b9392505050565b604051806101400160405280600015158152602001600073ffffffffffffffffffffffffffffffffffffffff1681526020016000815260200160008152602001600081526020016000815260200160001515815260200160008152602001600081526020016000151581525090565b6000819050919050565b611e5881611e45565b82525050565b6000602082019050611e736000830184611e4f565b92915050565b600080fd5b600073ffffffffffffffffffffffffffffffffffffffff82169050919050565b6000611ea982611e7e565b9050919050565b611eb981611e9e565b8114611ec457600080fd5b50565b600081359050611ed681611eb0565b92915050565b611ee581611e45565b8114611ef057600080fd5b50565b600081359050611f0281611edc565b92915050565b60008115159050919050565b611f1d81611f08565b8114611f2857600080fd5b50565b600081359050611f3a81611f14565b92915050565b600080600080600080600060e0888a031215611f5f57611f5e611e79565b5b6000611f6d8a828b01611ec7565b9750506020611f7e8a828b01611ef3565b9650506040611f8f8a828b01611ef3565b9550506060611fa08a828b01611ef3565b9450506080611fb18a828b01611ef3565b93505060a0611fc28a828b01611f2b565b92505060c0611fd38a828b01611ef3565b91505092959891949750929550565b611feb81611e9e565b82525050565b60006020820190506120066000830184611fe2565b92915050565b60006020828403121561202257612021611e79565b5b600061203084828501611ef3565b91505092915050565b60006020828403121561204f5761204e611e79565b5b600061205d84828501611ec7565b91505092915050565b6000819050919050565b61207981612066565b811461208457600080fd5b50565b60008135905061209681612070565b92915050565b600080604083850312156120b3576120b2611e79565b5b60006120c185828601612087565b92505060206120d285828601611ef3565b9150509250929050565b6120e581611f08565b82525050565b600060208201905061210060008301846120dc565b92915050565b61210f81611f08565b82525050565b61211e81611e9e565b82525050565b61212d81611e45565b82525050565b6101408201600082015161214a6000850182612106565b50602082015161215d6020850182612115565b5060408201516121706040850182612124565b5060608201516121836060850182612124565b5060808201516121966080850182612124565b5060a08201516121a960a0850182612124565b5060c08201516121bc60c0850182612106565b5060e08201516121cf60e0850182612124565b506101008201516121e4610100850182612124565b506101208201516121f9610120850182612106565b50505050565b6000610140820190506122156000830184612133565b92915050565b6000806040838503121561223257612231611e79565b5b600061224085828601611ec7565b925050602061225185828601611ef3565b9150509250929050565b61226481612066565b82525050565b600060208201905061227f600083018461225b565b92915050565b60006020828403121561229b5761229a611e79565b5b60006122a984828501612087565b91505092915050565b6000815190506122c181611edc565b92915050565b6000602082840312156122dd576122dc611e79565b5b60006122eb848285016122b2565b91505092915050565b600082825260208201905092915050565b7f6e6f7420656e6f7567682066756e647321000000000000000000000000000000600082015250565b600061233b6011836122f4565b915061234682612305565b602082019050919050565b6000602082019050818103600083015261236a8161232e565b9050919050565b7f6475726174696f6e206d757374206265203e2030000000000000000000000000600082015250565b60006123a76014836122f4565b91506123b282612371565b602082019050919050565b600060208201905081810360008301526123d68161239a565b9050919050565b7f616d6f756e74206d757374206265203e20300000000000000000000000000000600082015250565b60006124136012836122f4565b915061241e826123dd565b602082019050919050565b6000602082019050818103600083015261244281612406565b9050919050565b7f736c696365506572696f645365636f6e6473206d757374206265203e3d203100600082015250565b600061247f601f836122f4565b915061248a82612449565b602082019050919050565b600060208201905081810360008301526124ae81612472565b9050919050565b6000815190506124c481612070565b92915050565b6000602082840312156124e0576124df611e79565b5b60006124ee848285016124b5565b91505092915050565b7f5265656e7472616e637947756172643a207265656e7472616e742063616c6c00600082015250565b600061252d601f836122f4565b9150612538826124f7565b602082019050919050565b6000602082019050818103600083015261255c81612520565b9050919050565b7f6e6f7420656e6f75676820776974686472617761626c652066756e6473210000600082015250565b6000612599601e836122f4565b91506125a482612563565b602082019050919050565b600060208201905081810360008301526125c88161258c565b9050919050565b7f6973206e6f7420696e697469616c697a65642100000000000000000000000000600082015250565b60006126056013836122f4565b9150612610826125cf565b602082019050919050565b60006020820190508181036000830152612634816125f8565b9050919050565b7f76657374696e67207363686564756c65207265766f6b65642100000000000000600082015250565b60006126716019836122f4565b915061267c8261263b565b602082019050919050565b600060208201905081810360008301526126a081612664565b9050919050565b7f6f6e6c792062656e656669636961727920616e64206f776e6572210000000000600082015250565b60006126dd601b836122f4565b91506126e8826126a7565b602082019050919050565b6000602082019050818103600083015261270c816126d0565b9050919050565b7f63616e6e6f742072656c6561736520746f6b656e732100000000000000000000600082015250565b60006127496016836122f4565b915061275482612713565b602082019050919050565b600060208201905081810360008301526127788161273c565b9050919050565b7f4e487b7100000000000000000000000000000000000000000000000000000000600052601160045260246000fd5b60006127b982611e45565b91506127c483611e45565b9250828210156127d7576127d661277f565b5b828203905092915050565b60008160601b9050919050565b60006127fa826127e2565b9050919050565b600061280c826127ef565b9050919050565b61282461281f82611e9e565b612801565b82525050565b6000819050919050565b61284561284082611e45565b61282a565b82525050565b60006128578285612813565b6014820191506128678284612834565b6020820191508190509392505050565b7f76657374696e67206973206e6f74207265766f6361626c652100000000000000600082015250565b60006128ad6019836122f4565b91506128b882612877565b602082019050919050565b600060208201905081810360008301526128dc816128a0565b9050919050565b7f72656c65617365206661696c6564210000000000000000000000000000000000600082015250565b6000612919600f836122f4565b9150612924826128e3565b602082019050919050565b600060208201905081810360008301526129488161290c565b9050919050565b7f4f776e61626c653a206e6577206f776e657220697320746865207a65726f206160008201527f6464726573730000000000000000000000000000000000000000000000000000602082015250565b60006129ab6026836122f4565b91506129b68261294f565b604082019050919050565b600060208201905081810360008301526129da8161299e565b9050919050565b7f696e646578206f7574206f6620626f756e647321000000000000000000000000600082015250565b6000612a176014836122f4565b9150612a22826129e1565b602082019050919050565b60006020820190508181036000830152612a4681612a0a565b9050919050565b7f4e487b7100000000000000000000000000000000000000000000000000000000600052603260045260246000fd5b7f4f776e61626c653a2063616c6c6572206973206e6f7420746865206f776e6572600082015250565b6000612ab26020836122f4565b9150612abd82612a7c565b602082019050919050565b60006020820190508181036000830152612ae181612aa5565b9050919050565b6000612af382611e45565b9150612afe83611e45565b9250827fffffffffffffffffffffffffffffffffffffffffffffffffffffffffffffffff03821115612b3357612b3261277f565b5b828201905092915050565b6000604082019050612b536000830185611fe2565b612b606020830184611e4f565b9392505050565b600081519050612b7681611f14565b92915050565b600060208284031215612b9257612b91611e79565b5b6000612ba084828501612b67565b91505092915050565b7f5361666545524332303a204552433230206f7065726174696f6e20646964206e60008201527f6f74207375636365656400000000000000000000000000000000000000000000602082015250565b6000612c05602a836122f4565b9150612c1082612ba9565b604082019050919050565b60006020820190508181036000830152612c3481612bf8565b9050919050565b7f4e487b7100000000000000000000000000000000000000000000000000000000600052601260045260246000fd5b6000612c7582611e45565b9150612c8083611e45565b925082612c9057612c8f612c3b565b5b828204905092915050565b6000612ca682611e45565b9150612cb183611e45565b9250817fffffffffffffffffffffffffffffffffffffffffffffffffffffffffffffffff0483118215151615612cea57612ce961277f565b5b828202905092915050565b7f416464726573733a20696e73756666696369656e742062616c616e636520666f60008201527f722063616c6c0000000000000000000000000000000000000000000000000000602082015250565b6000612d516026836122f4565b9150612d5c82612cf5565b604082019050919050565b60006020820190508181036000830152612d8081612d44565b9050919050565b7f416464726573733a2063616c6c20746f206e6f6e2d636f6e7472616374000000600082015250565b6000612dbd601d836122f4565b9150612dc882612d87565b602082019050919050565b60006020820190508181036000830152612dec81612db0565b9050919050565b600081519050919050565b600081905092915050565b60005b83811015612e27578082015181840152602081019050612e0c565b83811115612e36576000848401525b50505050565b6000612e4782612df3565b612e518185612dfe565b9350612e61818560208601612e09565b80840191505092915050565b6000612e798284612e3c565b915081905092915050565b600081519050919050565b6000601f19601f8301169050919050565b6000612eab82612e84565b612eb581856122f4565b9350612ec5818560208601612e09565b612ece81612e8f565b840191505092915050565b60006020820190508181036000830152612ef38184612ea0565b90509291505056fea2646970667358221220cf4b4931440c57e53d30a4e46b8a48d2002c04007215b84a6dea7ac20c99091164736f6c634300080f0033",
  "linkReferences": {},
  "deployedLinkReferences": {}
}