{
  "_format": "hh-sol-artifact-1",
  "contractName": "TokenVesting",
  "sourceName": "contracts/TokenVesting.sol",
  "abi": [
    {
      "inputs": [
        {
          "internalType": "address",
          "name": "token_",
          "type": "address"
        }
      ],
      "stateMutability": "nonpayable",
      "type": "constructor"
    },
    {
      "anonymous": false,
      "inputs": [
        {
          "indexed": true,
          "internalType": "address",
          "name": "previousOwner",
          "type": "address"
        },
        {
          "indexed": true,
          "internalType": "address",
          "name": "newOwner",
          "type": "address"
        }
      ],
      "name": "OwnershipTransferred",
      "type": "event"
    },
    {
      "anonymous": false,
      "inputs": [
        {
          "indexed": false,
          "internalType": "uint256",
          "name": "amount",
          "type": "uint256"
        }
      ],
      "name": "Released",
      "type": "event"
    },
    {
      "anonymous": false,
      "inputs": [],
      "name": "Revoked",
      "type": "event"
    },
    {
      "inputs": [],
      "name": "MERKLE_ROOT",
      "outputs": [
        {
          "internalType": "bytes32",
          "name": "",
          "type": "bytes32"
        }
      ],
      "stateMutability": "view",
      "type": "function"
    },
    {
      "inputs": [
        {
          "internalType": "address",
          "name": "holder",
          "type": "address"
        }
      ],
      "name": "computeNextVestingScheduleIdForHolder",
      "outputs": [
        {
          "internalType": "bytes32",
          "name": "",
          "type": "bytes32"
        }
      ],
      "stateMutability": "view",
      "type": "function"
    },
    {
      "inputs": [
        {
          "internalType": "bytes32",
          "name": "vestingScheduleId",
          "type": "bytes32"
        }
      ],
      "name": "computeReleasableAmount",
      "outputs": [
        {
          "internalType": "uint256",
          "name": "",
          "type": "uint256"
        }
      ],
      "stateMutability": "view",
      "type": "function"
    },
    {
      "inputs": [
        {
          "internalType": "address",
          "name": "holder",
          "type": "address"
        },
        {
          "internalType": "uint256",
          "name": "index",
          "type": "uint256"
        }
      ],
      "name": "computeVestingScheduleIdForAddressAndIndex",
      "outputs": [
        {
          "internalType": "bytes32",
          "name": "",
          "type": "bytes32"
        }
      ],
      "stateMutability": "pure",
      "type": "function"
    },
    {
      "inputs": [
        {
          "internalType": "address",
          "name": "_beneficiary",
          "type": "address"
        },
        {
          "internalType": "uint256",
          "name": "_cliff",
          "type": "uint256"
        },
        {
          "internalType": "uint256",
          "name": "_duration",
          "type": "uint256"
        },
        {
          "internalType": "uint256",
          "name": "_slicePeriodSeconds",
          "type": "uint256"
        },
        {
          "internalType": "bool",
          "name": "_revocable",
          "type": "bool"
        },
        {
          "internalType": "uint256",
          "name": "_amount",
          "type": "uint256"
        }
      ],
      "name": "createVestingSchedule",
      "outputs": [
        {
          "internalType": "bool",
          "name": "status",
          "type": "bool"
        }
      ],
      "stateMutability": "nonpayable",
      "type": "function"
    },
    {
      "inputs": [
        {
          "internalType": "address",
          "name": "holder",
          "type": "address"
        }
      ],
      "name": "getLastVestingScheduleForHolder",
      "outputs": [
        {
          "components": [
            {
              "internalType": "address",
              "name": "beneficiary",
              "type": "address"
            },
            {
              "internalType": "uint256",
              "name": "cliff",
              "type": "uint256"
            },
            {
              "internalType": "uint256",
              "name": "start",
              "type": "uint256"
            },
            {
              "internalType": "uint256",
              "name": "duration",
              "type": "uint256"
            },
            {
              "internalType": "uint256",
              "name": "slicePeriodSeconds",
              "type": "uint256"
            },
            {
              "internalType": "uint256",
              "name": "amountTotal",
              "type": "uint256"
            },
            {
              "internalType": "uint256",
              "name": "released",
              "type": "uint256"
            },
            {
              "internalType": "bool",
              "name": "initialized",
              "type": "bool"
            },
            {
              "internalType": "bool",
              "name": "revocable",
              "type": "bool"
            },
            {
              "internalType": "bool",
              "name": "revoked",
              "type": "bool"
            }
          ],
          "internalType": "struct TokenVesting.VestingSchedule",
          "name": "",
          "type": "tuple"
        }
      ],
      "stateMutability": "view",
      "type": "function"
    },
    {
      "inputs": [],
      "name": "getToken",
      "outputs": [
        {
          "internalType": "address",
          "name": "",
          "type": "address"
        }
      ],
      "stateMutability": "view",
      "type": "function"
    },
    {
      "inputs": [
        {
          "internalType": "uint256",
          "name": "index",
          "type": "uint256"
        }
      ],
      "name": "getVestingIdAtIndex",
      "outputs": [
        {
          "internalType": "bytes32",
          "name": "",
          "type": "bytes32"
        }
      ],
      "stateMutability": "view",
      "type": "function"
    },
    {
      "inputs": [
        {
          "internalType": "bytes32",
          "name": "vestingScheduleId",
          "type": "bytes32"
        }
      ],
      "name": "getVestingSchedule",
      "outputs": [
        {
          "components": [
            {
              "internalType": "address",
              "name": "beneficiary",
              "type": "address"
            },
            {
              "internalType": "uint256",
              "name": "cliff",
              "type": "uint256"
            },
            {
              "internalType": "uint256",
              "name": "start",
              "type": "uint256"
            },
            {
              "internalType": "uint256",
              "name": "duration",
              "type": "uint256"
            },
            {
              "internalType": "uint256",
              "name": "slicePeriodSeconds",
              "type": "uint256"
            },
            {
              "internalType": "uint256",
              "name": "amountTotal",
              "type": "uint256"
            },
            {
              "internalType": "uint256",
              "name": "released",
              "type": "uint256"
            },
            {
              "internalType": "bool",
              "name": "initialized",
              "type": "bool"
            },
            {
              "internalType": "bool",
              "name": "revocable",
              "type": "bool"
            },
            {
              "internalType": "bool",
              "name": "revoked",
              "type": "bool"
            }
          ],
          "internalType": "struct TokenVesting.VestingSchedule",
          "name": "",
          "type": "tuple"
        }
      ],
      "stateMutability": "view",
      "type": "function"
    },
    {
      "inputs": [
        {
          "internalType": "address",
          "name": "holder",
          "type": "address"
        },
        {
          "internalType": "uint256",
          "name": "index",
          "type": "uint256"
        }
      ],
      "name": "getVestingScheduleByAddressAndIndex",
      "outputs": [
        {
          "components": [
            {
              "internalType": "address",
              "name": "beneficiary",
              "type": "address"
            },
            {
              "internalType": "uint256",
              "name": "cliff",
              "type": "uint256"
            },
            {
              "internalType": "uint256",
              "name": "start",
              "type": "uint256"
            },
            {
              "internalType": "uint256",
              "name": "duration",
              "type": "uint256"
            },
            {
              "internalType": "uint256",
              "name": "slicePeriodSeconds",
              "type": "uint256"
            },
            {
              "internalType": "uint256",
              "name": "amountTotal",
              "type": "uint256"
            },
            {
              "internalType": "uint256",
              "name": "released",
              "type": "uint256"
            },
            {
              "internalType": "bool",
              "name": "initialized",
              "type": "bool"
            },
            {
              "internalType": "bool",
              "name": "revocable",
              "type": "bool"
            },
            {
              "internalType": "bool",
              "name": "revoked",
              "type": "bool"
            }
          ],
          "internalType": "struct TokenVesting.VestingSchedule",
          "name": "",
          "type": "tuple"
        }
      ],
      "stateMutability": "view",
      "type": "function"
    },
    {
      "inputs": [],
      "name": "getVestingSchedulesCount",
      "outputs": [
        {
          "internalType": "uint256",
          "name": "",
          "type": "uint256"
        }
      ],
      "stateMutability": "view",
      "type": "function"
    },
    {
      "inputs": [
        {
          "internalType": "address",
          "name": "_beneficiary",
          "type": "address"
        }
      ],
      "name": "getVestingSchedulesCountByBeneficiary",
      "outputs": [
        {
          "internalType": "uint256",
          "name": "",
          "type": "uint256"
        }
      ],
      "stateMutability": "view",
      "type": "function"
    },
    {
      "inputs": [],
      "name": "getVestingSchedulesTotalAmount",
      "outputs": [
        {
          "internalType": "uint256",
          "name": "",
          "type": "uint256"
        }
      ],
      "stateMutability": "view",
      "type": "function"
    },
    {
      "inputs": [],
      "name": "getWithdrawableAmount",
      "outputs": [
        {
          "internalType": "uint256",
          "name": "",
          "type": "uint256"
        }
      ],
      "stateMutability": "view",
      "type": "function"
    },
    {
      "inputs": [],
      "name": "owner",
      "outputs": [
        {
          "internalType": "address",
          "name": "",
          "type": "address"
        }
      ],
      "stateMutability": "view",
      "type": "function"
    },
    {
      "inputs": [
        {
          "internalType": "bytes32",
          "name": "vestingScheduleId",
          "type": "bytes32"
        },
        {
          "internalType": "uint256",
          "name": "amount",
          "type": "uint256"
        }
      ],
      "name": "release",
      "outputs": [
        {
          "internalType": "bool",
          "name": "",
          "type": "bool"
        }
      ],
      "stateMutability": "nonpayable",
      "type": "function"
    },
    {
      "inputs": [],
      "name": "renounceOwnership",
      "outputs": [],
      "stateMutability": "nonpayable",
      "type": "function"
    },
    {
      "inputs": [
        {
          "internalType": "bytes32",
          "name": "vestingScheduleId",
          "type": "bytes32"
        }
      ],
      "name": "revoke",
      "outputs": [],
      "stateMutability": "nonpayable",
      "type": "function"
    },
    {
      "inputs": [
        {
          "internalType": "address",
          "name": "newOwner",
          "type": "address"
        }
      ],
      "name": "transferOwnership",
      "outputs": [],
      "stateMutability": "nonpayable",
      "type": "function"
    },
    {
      "inputs": [
        {
          "internalType": "bytes32[]",
          "name": "_merkleProof",
          "type": "bytes32[]"
        },
        {
          "internalType": "uint256",
          "name": "_amount",
          "type": "uint256"
        },
        {
          "internalType": "uint256",
          "name": "_cliff",
          "type": "uint256"
        },
        {
          "internalType": "uint256",
          "name": "_duration",
          "type": "uint256"
        },
        {
          "internalType": "uint256",
          "name": "_slicePeriodSeconds",
          "type": "uint256"
        },
        {
          "internalType": "bool",
          "name": "_revocable",
          "type": "bool"
        }
      ],
      "name": "whitelistClaim",
      "outputs": [
        {
          "internalType": "bool",
          "name": "status",
          "type": "bool"
        }
      ],
      "stateMutability": "nonpayable",
      "type": "function"
    },
    {
      "inputs": [
        {
          "internalType": "address",
          "name": "",
          "type": "address"
        }
      ],
      "name": "whitelistClaimed",
      "outputs": [
        {
          "internalType": "bool",
          "name": "",
          "type": "bool"
        }
      ],
      "stateMutability": "view",
      "type": "function"
    },
    {
      "inputs": [
        {
          "internalType": "uint256",
          "name": "amount",
          "type": "uint256"
        }
      ],
      "name": "withdraw",
      "outputs": [],
      "stateMutability": "nonpayable",
      "type": "function"
    }
  ],
  "bytecode": "0x60a06040523480156200001157600080fd5b5060405162003a7338038062003a73833981810160405281019062000037919062000241565b620000576200004b6200010b60201b60201c565b6200011360201b60201c565b60018081905550600073ffffffffffffffffffffffffffffffffffffffff168173ffffffffffffffffffffffffffffffffffffffff1603620000d0576040517f08c379a0000000000000000000000000000000000000000000000000000000008152600401620000c790620002d4565b60405180910390fd5b8073ffffffffffffffffffffffffffffffffffffffff1660808173ffffffffffffffffffffffffffffffffffffffff168152505050620002f6565b600033905090565b60008060009054906101000a900473ffffffffffffffffffffffffffffffffffffffff169050816000806101000a81548173ffffffffffffffffffffffffffffffffffffffff021916908373ffffffffffffffffffffffffffffffffffffffff1602179055508173ffffffffffffffffffffffffffffffffffffffff168173ffffffffffffffffffffffffffffffffffffffff167f8be0079c531659141344cd1fd0a4f28419497f9722a3daafe3b4186f6b6457e060405160405180910390a35050565b600080fd5b600073ffffffffffffffffffffffffffffffffffffffff82169050919050565b60006200020982620001dc565b9050919050565b6200021b81620001fc565b81146200022757600080fd5b50565b6000815190506200023b8162000210565b92915050565b6000602082840312156200025a5762000259620001d7565b5b60006200026a848285016200022a565b91505092915050565b600082825260208201905092915050565b7f7a65726f2061646472657373206e6f7420616c6c6f7765642100000000000000600082015250565b6000620002bc60198362000273565b9150620002c98262000284565b602082019050919050565b60006020820190508181036000830152620002ef81620002ad565b9050919050565b6080516137456200032e600039600081816104aa0152818161064e01528181610ab801528181610cef01526115cb01526137456000f3fe608060405234801561001057600080fd5b50600436106101425760003560e01c80638da5cb5b116100b8578063ea1bb3d51161007c578063ea1bb3d51461038d578063f2fde38b146103bd578063f44a708e146103d9578063f51321d714610409578063f7c469f014610439578063f9079b371461046957610142565b80638da5cb5b146102d557806390be10cc146102f35780639ef346b414610311578063b75c7dc614610341578063db4bec441461035d57610142565b806351e75e8b1161010a57806351e75e8b146101ed5780635a7bb69a1461020b57806366afd8ef1461023b578063715018a61461026b5780637e913dc6146102755780638af104da146102a557610142565b8063130836171461014757806321df0da71461016557806327a1567f146101835780632e1a7d4d146101b357806348deb471146101cf575b600080fd5b61014f610499565b60405161015c91906122f0565b60405180910390f35b61016d6104a6565b60405161017a919061234c565b60405180910390f35b61019d60048036038101906101989190612401565b6104ce565b6040516101aa919061249d565b60405180910390f35b6101cd60048036038101906101c891906124b8565b61053a565b005b6101d761069c565b6040516101e491906122f0565b60405180910390f35b6101f56106a6565b60405161020291906124fe565b60405180910390f35b61022560048036038101906102209190612519565b6106cd565b60405161023291906122f0565b60405180910390f35b61025560048036038101906102509190612572565b610716565b604051610262919061249d565b60405180910390f35b610273610b13565b005b61028f600480360381019061028a9190612519565b610b27565b60405161029c91906126ab565b60405180910390f35b6102bf60048036038101906102ba91906126c7565b610c8c565b6040516102cc91906124fe565b60405180910390f35b6102dd610cbf565b6040516102ea919061234c565b60405180910390f35b6102fb610ce8565b60405161030891906122f0565b60405180910390f35b61032b60048036038101906103269190612707565b610d96565b60405161033891906126ab565b60405180910390f35b61035b60048036038101906103569190612707565b610ea7565b005b61037760048036038101906103729190612519565b61117e565b604051610384919061249d565b60405180910390f35b6103a760048036038101906103a29190612707565b61119e565b6040516103b491906122f0565b60405180910390f35b6103d760048036038101906103d29190612519565b611380565b005b6103f360048036038101906103ee9190612799565b611403565b604051610400919061249d565b60405180910390f35b610423600480360381019061041e91906126c7565b611708565b60405161043091906126ab565b60405180910390f35b610453600480360381019061044e9190612519565b61172a565b60405161046091906124fe565b60405180910390f35b610483600480360381019061047e91906124b8565b61177c565b60405161049091906124fe565b60405180910390f35b6000600680549050905090565b60007f0000000000000000000000000000000000000000000000000000000000000000905090565b60006104d86117ed565b6104ee876104e461186b565b8888888888611873565b905080610530576040517f08c379a0000000000000000000000000000000000000000000000000000000008152600401610527906128a5565b60405180910390fd5b9695505050505050565b60026001540361057f576040517f08c379a000000000000000000000000000000000000000000000000000000000815260040161057690612911565b60405180910390fd5b600260018190555061058f6117ed565b803073ffffffffffffffffffffffffffffffffffffffff166390be10cc6040518163ffffffff1660e01b8152600401602060405180830381865afa1580156105db573d6000803e3d6000fd5b505050506040513d601f19601f820116820180604052508101906105ff9190612946565b1015610640576040517f08c379a0000000000000000000000000000000000000000000000000000000008152600401610637906129bf565b60405180910390fd5b61069261064b610cbf565b827f000000000000000000000000000000000000000000000000000000000000000073ffffffffffffffffffffffffffffffffffffffff16611d039092919063ffffffff16565b6001808190555050565b6000600354905090565b7f8a688de9a32aa43e34941d5ecad5dac4bb799bf8bbc2c5e838734d549f250d3a60001b81565b6000600560008373ffffffffffffffffffffffffffffffffffffffff1673ffffffffffffffffffffffffffffffffffffffff168152602001908152602001600020549050919050565b600060026001540361075d576040517f08c379a000000000000000000000000000000000000000000000000000000000815260040161075490612911565b60405180910390fd5b6002600181905550826004600082815260200190815260200160002060070160009054906101000a900460ff166107c9576040517f08c379a00000000000000000000000000000000000000000000000000000000081526004016107c090612a2b565b60405180910390fd5b6004600082815260200190815260200160002060070160029054906101000a900460ff161561082d576040517f08c379a000000000000000000000000000000000000000000000000000000000815260040161082490612a97565b60405180910390fd5b600060046000868152602001908152602001600020905060008160000160009054906101000a900473ffffffffffffffffffffffffffffffffffffffff1673ffffffffffffffffffffffffffffffffffffffff163373ffffffffffffffffffffffffffffffffffffffff1614905060006108a5610cbf565b73ffffffffffffffffffffffffffffffffffffffff163373ffffffffffffffffffffffffffffffffffffffff1614905081806108de5750805b61091d576040517f08c379a000000000000000000000000000000000000000000000000000000000815260040161091490612b03565b60405180910390fd5b6000610a1784604051806101400160405290816000820160009054906101000a900473ffffffffffffffffffffffffffffffffffffffff1673ffffffffffffffffffffffffffffffffffffffff1673ffffffffffffffffffffffffffffffffffffffff1681526020016001820154815260200160028201548152602001600382015481526020016004820154815260200160058201548152602001600682015481526020016007820160009054906101000a900460ff161515151581526020016007820160019054906101000a900460ff161515151581526020016007820160029054906101000a900460ff161515151581525050611d89565b905086811015610a5c576040517f08c379a0000000000000000000000000000000000000000000000000000000008152600401610a5390612b6f565b60405180910390fd5b868460060154610a6c9190612bbe565b846006018190555060008460000160009054906101000a900473ffffffffffffffffffffffffffffffffffffffff16905087600354610aab9190612bf2565b600381905550610afc81897f000000000000000000000000000000000000000000000000000000000000000073ffffffffffffffffffffffffffffffffffffffff16611d039092919063ffffffff16565b600196505050505050506001808190555092915050565b610b1b6117ed565b610b256000611e70565b565b610b2f612268565b60046000610b88846001600560008873ffffffffffffffffffffffffffffffffffffffff1673ffffffffffffffffffffffffffffffffffffffff16815260200190815260200160002054610b839190612bf2565b610c8c565b8152602001908152602001600020604051806101400160405290816000820160009054906101000a900473ffffffffffffffffffffffffffffffffffffffff1673ffffffffffffffffffffffffffffffffffffffff1673ffffffffffffffffffffffffffffffffffffffff1681526020016001820154815260200160028201548152602001600382015481526020016004820154815260200160058201548152602001600682015481526020016007820160009054906101000a900460ff161515151581526020016007820160019054906101000a900460ff161515151581526020016007820160029054906101000a900460ff1615151515815250509050919050565b60008282604051602001610ca1929190612c8f565b60405160208183030381529060405280519060200120905092915050565b60008060009054906101000a900473ffffffffffffffffffffffffffffffffffffffff16905090565b60006003547f000000000000000000000000000000000000000000000000000000000000000073ffffffffffffffffffffffffffffffffffffffff166370a08231306040518263ffffffff1660e01b8152600401610d46919061234c565b602060405180830381865afa158015610d63573d6000803e3d6000fd5b505050506040513d601f19601f82011682018060405250810190610d879190612946565b610d919190612bf2565b905090565b610d9e612268565b60046000838152602001908152602001600020604051806101400160405290816000820160009054906101000a900473ffffffffffffffffffffffffffffffffffffffff1673ffffffffffffffffffffffffffffffffffffffff1673ffffffffffffffffffffffffffffffffffffffff1681526020016001820154815260200160028201548152602001600382015481526020016004820154815260200160058201548152602001600682015481526020016007820160009054906101000a900460ff161515151581526020016007820160019054906101000a900460ff161515151581526020016007820160029054906101000a900460ff1615151515815250509050919050565b610eaf6117ed565b806004600082815260200190815260200160002060070160009054906101000a900460ff16610f13576040517f08c379a0000000000000000000000000000000000000000000000000000000008152600401610f0a90612a2b565b60405180910390fd5b6004600082815260200190815260200160002060070160029054906101000a900460ff1615610f77576040517f08c379a0000000000000000000000000000000000000000000000000000000008152600401610f6e90612a97565b60405180910390fd5b60006004600084815260200190815260200160002090508060070160019054906101000a900460ff16610fdf576040517f08c379a0000000000000000000000000000000000000000000000000000000008152600401610fd690612d07565b60405180910390fd5b60006110d982604051806101400160405290816000820160009054906101000a900473ffffffffffffffffffffffffffffffffffffffff1673ffffffffffffffffffffffffffffffffffffffff1673ffffffffffffffffffffffffffffffffffffffff1681526020016001820154815260200160028201548152602001600382015481526020016004820154815260200160058201548152602001600682015481526020016007820160009054906101000a900460ff161515151581526020016007820160019054906101000a900460ff161515151581526020016007820160029054906101000a900460ff161515151581525050611d89565b9050600081111561112e576110ee8482610716565b61112d576040517f08c379a000000000000000000000000000000000000000000000000000000000815260040161112490612d73565b60405180910390fd5b5b6000826006015483600501546111449190612bf2565b9050806003546111549190612bf2565b60038190555060018360070160026101000a81548160ff0219169083151502179055505050505050565b60026020528060005260406000206000915054906101000a900460ff1681565b6000816004600082815260200190815260200160002060070160009054906101000a900460ff16611204576040517f08c379a00000000000000000000000000000000000000000000000000000000081526004016111fb90612a2b565b60405180910390fd5b6004600082815260200190815260200160002060070160029054906101000a900460ff1615611268576040517f08c379a000000000000000000000000000000000000000000000000000000000815260040161125f90612a97565b60405180910390fd5b600060046000858152602001908152602001600020905061137781604051806101400160405290816000820160009054906101000a900473ffffffffffffffffffffffffffffffffffffffff1673ffffffffffffffffffffffffffffffffffffffff1673ffffffffffffffffffffffffffffffffffffffff1681526020016001820154815260200160028201548152602001600382015481526020016004820154815260200160058201548152602001600682015481526020016007820160009054906101000a900460ff161515151581526020016007820160019054906101000a900460ff161515151581526020016007820160029054906101000a900460ff161515151581525050611d89565b92505050919050565b6113886117ed565b600073ffffffffffffffffffffffffffffffffffffffff168173ffffffffffffffffffffffffffffffffffffffff16036113f7576040517f08c379a00000000000000000000000000000000000000000000000000000000081526004016113ee90612e05565b60405180910390fd5b61140081611e70565b50565b6000600260003373ffffffffffffffffffffffffffffffffffffffff1673ffffffffffffffffffffffffffffffffffffffff16815260200190815260200160002060009054906101000a900460ff1615611492576040517f08c379a000000000000000000000000000000000000000000000000000000000815260040161148990612e71565b60405180910390fd5b6001600260003373ffffffffffffffffffffffffffffffffffffffff1673ffffffffffffffffffffffffffffffffffffffff16815260200190815260200160002060006101000a81548160ff0219169083151502179055506000338787876040516020016115039493929190612e91565b60405160208183030381529060405280519060200120905061158a898980806020026020016040519081016040528093929190818152602001838360200280828437600081840152601f19601f820116905080830192505050505050507f8a688de9a32aa43e34941d5ecad5dac4bb799bf8bbc2c5e838734d549f250d3a60001b83611f34565b6115c9576040517f08c379a00000000000000000000000000000000000000000000000000000000081526004016115c090612f22565b60405180910390fd5b7f000000000000000000000000000000000000000000000000000000000000000073ffffffffffffffffffffffffffffffffffffffff1663a0712d68886040518263ffffffff1660e01b815260040161162291906122f0565b6020604051808303816000875af1158015611641573d6000803e3d6000fd5b505050506040513d601f19601f820116820180604052508101906116659190612f57565b6116a4576040517f08c379a000000000000000000000000000000000000000000000000000000000815260040161169b90612fd0565b60405180910390fd5b6116ba336116b061186b565b888888888d611873565b9150816116fc576040517f08c379a00000000000000000000000000000000000000000000000000000000081526004016116f3906128a5565b60405180910390fd5b50979650505050505050565b611710612268565b61172261171d8484610c8c565b610d96565b905092915050565b600061177582600560008573ffffffffffffffffffffffffffffffffffffffff1673ffffffffffffffffffffffffffffffffffffffff16815260200190815260200160002054610c8c565b9050919050565b6000611786610499565b82106117c7576040517f08c379a00000000000000000000000000000000000000000000000000000000081526004016117be9061303c565b60405180910390fd5b600682815481106117db576117da61305c565b5b90600052602060002001549050919050565b6117f5611f4b565b73ffffffffffffffffffffffffffffffffffffffff16611813610cbf565b73ffffffffffffffffffffffffffffffffffffffff1614611869576040517f08c379a0000000000000000000000000000000000000000000000000000000008152600401611860906130d7565b60405180910390fd5b565b600042905090565b6000813073ffffffffffffffffffffffffffffffffffffffff166390be10cc6040518163ffffffff1660e01b8152600401602060405180830381865afa1580156118c1573d6000803e3d6000fd5b505050506040513d601f19601f820116820180604052508101906118e59190612946565b1015611926576040517f08c379a000000000000000000000000000000000000000000000000000000000815260040161191d90613143565b60405180910390fd5b858511611968576040517f08c379a000000000000000000000000000000000000000000000000000000000815260040161195f906131af565b60405180910390fd5b600085116119ab576040517f08c379a00000000000000000000000000000000000000000000000000000000081526004016119a29061321b565b60405180910390fd5b600082116119ee576040517f08c379a00000000000000000000000000000000000000000000000000000000081526004016119e590613287565b60405180910390fd5b6001841015611a32576040517f08c379a0000000000000000000000000000000000000000000000000000000008152600401611a29906132f3565b60405180910390fd5b60003073ffffffffffffffffffffffffffffffffffffffff1663f7c469f08a6040518263ffffffff1660e01b8152600401611a6d919061234c565b602060405180830381865afa158015611a8a573d6000803e3d6000fd5b505050506040513d601f19601f82011682018060405250810190611aae9190613328565b905060008789611abe9190612bbe565b90506040518061014001604052808b73ffffffffffffffffffffffffffffffffffffffff1681526020018281526020018a8152602001888152602001878152602001858152602001600081526020016001151581526020018615158152602001600015158152506004600084815260200190815260200160002060008201518160000160006101000a81548173ffffffffffffffffffffffffffffffffffffffff021916908373ffffffffffffffffffffffffffffffffffffffff1602179055506020820151816001015560408201518160020155606082015181600301556080820151816004015560a0820151816005015560c0820151816006015560e08201518160070160006101000a81548160ff0219169083151502179055506101008201518160070160016101000a81548160ff0219169083151502179055506101208201518160070160026101000a81548160ff02191690831515021790555090505083600354611c2e9190612bbe565b60038190555060068290806001815401808255809150506001900390600052602060002001600090919091909150556000600560008c73ffffffffffffffffffffffffffffffffffffffff1673ffffffffffffffffffffffffffffffffffffffff168152602001908152602001600020549050600181611cae9190612bbe565b600560008d73ffffffffffffffffffffffffffffffffffffffff1673ffffffffffffffffffffffffffffffffffffffff1681526020019081526020016000208190555060019350505050979650505050505050565b611d848363a9059cbb60e01b8484604051602401611d22929190613355565b604051602081830303815290604052907bffffffffffffffffffffffffffffffffffffffffffffffffffffffff19166020820180517bffffffffffffffffffffffffffffffffffffffffffffffffffffffff8381831617835250505050611f53565b505050565b600080611d9461186b565b90508260200151811080611daa57508261012001515b15611db9576000915050611e6b565b82606001518360400151611dcd9190612bbe565b8110611def578260c001518360a00151611de79190612bf2565b915050611e6b565b6000836040015182611e019190612bf2565b905060008460800151905060008183611e1a91906133ad565b905060008282611e2a91906133de565b905060008760600151828960a00151611e4391906133de565b611e4d91906133ad565b90508760c0015181611e5f9190612bf2565b90508096505050505050505b919050565b60008060009054906101000a900473ffffffffffffffffffffffffffffffffffffffff169050816000806101000a81548173ffffffffffffffffffffffffffffffffffffffff021916908373ffffffffffffffffffffffffffffffffffffffff1602179055508173ffffffffffffffffffffffffffffffffffffffff168173ffffffffffffffffffffffffffffffffffffffff167f8be0079c531659141344cd1fd0a4f28419497f9722a3daafe3b4186f6b6457e060405160405180910390a35050565b600082611f41858461201a565b1490509392505050565b600033905090565b6000611fb5826040518060400160405280602081526020017f5361666545524332303a206c6f772d6c6576656c2063616c6c206661696c65648152508573ffffffffffffffffffffffffffffffffffffffff166120709092919063ffffffff16565b90506000815111156120155780806020019051810190611fd59190612f57565b612014576040517f08c379a000000000000000000000000000000000000000000000000000000000815260040161200b906134aa565b60405180910390fd5b5b505050565b60008082905060005b845181101561206557612050828683815181106120435761204261305c565b5b6020026020010151612088565b9150808061205d906134ca565b915050612023565b508091505092915050565b606061207f84846000856120b3565b90509392505050565b60008183106120a05761209b82846121c7565b6120ab565b6120aa83836121c7565b5b905092915050565b6060824710156120f8576040517f08c379a00000000000000000000000000000000000000000000000000000000081526004016120ef90613584565b60405180910390fd5b612101856121de565b612140576040517f08c379a0000000000000000000000000000000000000000000000000000000008152600401612137906135f0565b60405180910390fd5b6000808673ffffffffffffffffffffffffffffffffffffffff1685876040516121699190613681565b60006040518083038185875af1925050503d80600081146121a6576040519150601f19603f3d011682016040523d82523d6000602084013e6121ab565b606091505b50915091506121bb828286612201565b92505050949350505050565b600082600052816020526040600020905092915050565b6000808273ffffffffffffffffffffffffffffffffffffffff163b119050919050565b6060831561221157829050612261565b6000835111156122245782518084602001fd5b816040517f08c379a000000000000000000000000000000000000000000000000000000000815260040161225891906136ed565b60405180910390fd5b9392505050565b604051806101400160405280600073ffffffffffffffffffffffffffffffffffffffff1681526020016000815260200160008152602001600081526020016000815260200160008152602001600081526020016000151581526020016000151581526020016000151581525090565b6000819050919050565b6122ea816122d7565b82525050565b600060208201905061230560008301846122e1565b92915050565b600073ffffffffffffffffffffffffffffffffffffffff82169050919050565b60006123368261230b565b9050919050565b6123468161232b565b82525050565b6000602082019050612361600083018461233d565b92915050565b600080fd5b600080fd5b61237a8161232b565b811461238557600080fd5b50565b60008135905061239781612371565b92915050565b6123a6816122d7565b81146123b157600080fd5b50565b6000813590506123c38161239d565b92915050565b60008115159050919050565b6123de816123c9565b81146123e957600080fd5b50565b6000813590506123fb816123d5565b92915050565b60008060008060008060c0878903121561241e5761241d612367565b5b600061242c89828a01612388565b965050602061243d89828a016123b4565b955050604061244e89828a016123b4565b945050606061245f89828a016123b4565b935050608061247089828a016123ec565b92505060a061248189828a016123b4565b9150509295509295509295565b612497816123c9565b82525050565b60006020820190506124b2600083018461248e565b92915050565b6000602082840312156124ce576124cd612367565b5b60006124dc848285016123b4565b91505092915050565b6000819050919050565b6124f8816124e5565b82525050565b600060208201905061251360008301846124ef565b92915050565b60006020828403121561252f5761252e612367565b5b600061253d84828501612388565b91505092915050565b61254f816124e5565b811461255a57600080fd5b50565b60008135905061256c81612546565b92915050565b6000806040838503121561258957612588612367565b5b60006125978582860161255d565b92505060206125a8858286016123b4565b9150509250929050565b6125bb8161232b565b82525050565b6125ca816122d7565b82525050565b6125d9816123c9565b82525050565b610140820160008201516125f660008501826125b2565b50602082015161260960208501826125c1565b50604082015161261c60408501826125c1565b50606082015161262f60608501826125c1565b50608082015161264260808501826125c1565b5060a082015161265560a08501826125c1565b5060c082015161266860c08501826125c1565b5060e082015161267b60e08501826125d0565b506101008201516126906101008501826125d0565b506101208201516126a56101208501826125d0565b50505050565b6000610140820190506126c160008301846125df565b92915050565b600080604083850312156126de576126dd612367565b5b60006126ec85828601612388565b92505060206126fd858286016123b4565b9150509250929050565b60006020828403121561271d5761271c612367565b5b600061272b8482850161255d565b91505092915050565b600080fd5b600080fd5b600080fd5b60008083601f84011261275957612758612734565b5b8235905067ffffffffffffffff81111561277657612775612739565b5b6020830191508360208202830111156127925761279161273e565b5b9250929050565b600080600080600080600060c0888a0312156127b8576127b7612367565b5b600088013567ffffffffffffffff8111156127d6576127d561236c565b5b6127e28a828b01612743565b975097505060206127f58a828b016123b4565b95505060406128068a828b016123b4565b94505060606128178a828b016123b4565b93505060806128288a828b016123b4565b92505060a06128398a828b016123ec565b91505092959891949750929550565b600082825260208201905092915050565b7f5363686564756c6564206661696c656421000000000000000000000000000000600082015250565b600061288f601183612848565b915061289a82612859565b602082019050919050565b600060208201905081810360008301526128be81612882565b9050919050565b7f5265656e7472616e637947756172643a207265656e7472616e742063616c6c00600082015250565b60006128fb601f83612848565b9150612906826128c5565b602082019050919050565b6000602082019050818103600083015261292a816128ee565b9050919050565b6000815190506129408161239d565b92915050565b60006020828403121561295c5761295b612367565b5b600061296a84828501612931565b91505092915050565b7f6e6f7420656e6f75676820776974686472617761626c652066756e6473210000600082015250565b60006129a9601e83612848565b91506129b482612973565b602082019050919050565b600060208201905081810360008301526129d88161299c565b9050919050565b7f6973206e6f7420696e697469616c697a65642100000000000000000000000000600082015250565b6000612a15601383612848565b9150612a20826129df565b602082019050919050565b60006020820190508181036000830152612a4481612a08565b9050919050565b7f76657374696e67207363686564756c65207265766f6b65642100000000000000600082015250565b6000612a81601983612848565b9150612a8c82612a4b565b602082019050919050565b60006020820190508181036000830152612ab081612a74565b9050919050565b7f6f6e6c792062656e656669636961727920616e64206f776e6572210000000000600082015250565b6000612aed601b83612848565b9150612af882612ab7565b602082019050919050565b60006020820190508181036000830152612b1c81612ae0565b9050919050565b7f63616e6e6f742072656c6561736520746f6b656e732100000000000000000000600082015250565b6000612b59601683612848565b9150612b6482612b23565b602082019050919050565b60006020820190508181036000830152612b8881612b4c565b9050919050565b7f4e487b7100000000000000000000000000000000000000000000000000000000600052601160045260246000fd5b6000612bc9826122d7565b9150612bd4836122d7565b9250828201905080821115612bec57612beb612b8f565b5b92915050565b6000612bfd826122d7565b9150612c08836122d7565b9250828203905081811115612c2057612c1f612b8f565b5b92915050565b60008160601b9050919050565b6000612c3e82612c26565b9050919050565b6000612c5082612c33565b9050919050565b612c68612c638261232b565b612c45565b82525050565b6000819050919050565b612c89612c84826122d7565b612c6e565b82525050565b6000612c9b8285612c57565b601482019150612cab8284612c78565b6020820191508190509392505050565b7f76657374696e67206973206e6f74207265766f6361626c652100000000000000600082015250565b6000612cf1601983612848565b9150612cfc82612cbb565b602082019050919050565b60006020820190508181036000830152612d2081612ce4565b9050919050565b7f72656c65617365206661696c6564210000000000000000000000000000000000600082015250565b6000612d5d600f83612848565b9150612d6882612d27565b602082019050919050565b60006020820190508181036000830152612d8c81612d50565b9050919050565b7f4f776e61626c653a206e6577206f776e657220697320746865207a65726f206160008201527f6464726573730000000000000000000000000000000000000000000000000000602082015250565b6000612def602683612848565b9150612dfa82612d93565b604082019050919050565b60006020820190508181036000830152612e1e81612de2565b9050919050565b7f4164647265737320616c726561647920636c61696d6564210000000000000000600082015250565b6000612e5b601883612848565b9150612e6682612e25565b602082019050919050565b60006020820190508181036000830152612e8a81612e4e565b9050919050565b6000608082019050612ea6600083018761233d565b612eb360208301866122e1565b612ec060408301856122e1565b612ecd60608301846122e1565b95945050505050565b7f696e76616c69642070726f6f6600000000000000000000000000000000000000600082015250565b6000612f0c600d83612848565b9150612f1782612ed6565b602082019050919050565b60006020820190508181036000830152612f3b81612eff565b9050919050565b600081519050612f51816123d5565b92915050565b600060208284031215612f6d57612f6c612367565b5b6000612f7b84828501612f42565b91505092915050565b7f6d696e74206661696c6564210000000000000000000000000000000000000000600082015250565b6000612fba600c83612848565b9150612fc582612f84565b602082019050919050565b60006020820190508181036000830152612fe981612fad565b9050919050565b7f696e646578206f7574206f6620626f756e647321000000000000000000000000600082015250565b6000613026601483612848565b915061303182612ff0565b602082019050919050565b6000602082019050818103600083015261305581613019565b9050919050565b7f4e487b7100000000000000000000000000000000000000000000000000000000600052603260045260246000fd5b7f4f776e61626c653a2063616c6c6572206973206e6f7420746865206f776e6572600082015250565b60006130c1602083612848565b91506130cc8261308b565b602082019050919050565b600060208201905081810360008301526130f0816130b4565b9050919050565b7f6e6f7420656e6f7567682066756e647321000000000000000000000000000000600082015250565b600061312d601183612848565b9150613138826130f7565b602082019050919050565b6000602082019050818103600083015261315c81613120565b9050919050565b7f6475726174696f6e206973206e6f742076616c69642100000000000000000000600082015250565b6000613199601683612848565b91506131a482613163565b602082019050919050565b600060208201905081810360008301526131c88161318c565b9050919050565b7f6475726174696f6e206d757374206265203e2030000000000000000000000000600082015250565b6000613205601483612848565b9150613210826131cf565b602082019050919050565b60006020820190508181036000830152613234816131f8565b9050919050565b7f616d6f756e74206d757374206265203e20300000000000000000000000000000600082015250565b6000613271601283612848565b915061327c8261323b565b602082019050919050565b600060208201905081810360008301526132a081613264565b9050919050565b7f736c696365506572696f645365636f6e6473206d757374206265203e3d203100600082015250565b60006132dd601f83612848565b91506132e8826132a7565b602082019050919050565b6000602082019050818103600083015261330c816132d0565b9050919050565b60008151905061332281612546565b92915050565b60006020828403121561333e5761333d612367565b5b600061334c84828501613313565b91505092915050565b600060408201905061336a600083018561233d565b61337760208301846122e1565b9392505050565b7f4e487b7100000000000000000000000000000000000000000000000000000000600052601260045260246000fd5b60006133b8826122d7565b91506133c3836122d7565b9250826133d3576133d261337e565b5b828204905092915050565b60006133e9826122d7565b91506133f4836122d7565b9250817fffffffffffffffffffffffffffffffffffffffffffffffffffffffffffffffff048311821515161561342d5761342c612b8f565b5b828202905092915050565b7f5361666545524332303a204552433230206f7065726174696f6e20646964206e60008201527f6f74207375636365656400000000000000000000000000000000000000000000602082015250565b6000613494602a83612848565b915061349f82613438565b604082019050919050565b600060208201905081810360008301526134c381613487565b9050919050565b60006134d5826122d7565b91507fffffffffffffffffffffffffffffffffffffffffffffffffffffffffffffffff820361350757613506612b8f565b5b600182019050919050565b7f416464726573733a20696e73756666696369656e742062616c616e636520666f60008201527f722063616c6c0000000000000000000000000000000000000000000000000000602082015250565b600061356e602683612848565b915061357982613512565b604082019050919050565b6000602082019050818103600083015261359d81613561565b9050919050565b7f416464726573733a2063616c6c20746f206e6f6e2d636f6e7472616374000000600082015250565b60006135da601d83612848565b91506135e5826135a4565b602082019050919050565b60006020820190508181036000830152613609816135cd565b9050919050565b600081519050919050565b600081905092915050565b60005b83811015613644578082015181840152602081019050613629565b60008484015250505050565b600061365b82613610565b613665818561361b565b9350613675818560208601613626565b80840191505092915050565b600061368d8284613650565b915081905092915050565b600081519050919050565b6000601f19601f8301169050919050565b60006136bf82613698565b6136c98185612848565b93506136d9818560208601613626565b6136e2816136a3565b840191505092915050565b6000602082019050818103600083015261370781846136b4565b90509291505056fea26469706673582212200ddeee620bfc606ff6fae0ac4fa73a27febd6817f221091dc9cb69afd54751c664736f6c63430008100033",
  "linkReferences": {},
  "deployedLinkReferences": {}
}